{
  "contractName": "OraclizeTest",
  "abi": [
    {
      "inputs": [],
      "payable": true,
      "stateMutability": "payable",
      "type": "constructor"
    },
    {
      "anonymous": false,
      "inputs": [
        {
          "indexed": false,
          "name": "description",
          "type": "string"
        }
      ],
      "name": "newOraclizeQuery",
      "type": "event"
    },
    {
      "anonymous": false,
      "inputs": [
        {
          "indexed": false,
          "name": "data",
          "type": "string"
        }
      ],
      "name": "newData",
      "type": "event"
    },
    {
      "constant": false,
      "inputs": [
        {
          "name": "myid",
          "type": "bytes32"
        },
        {
          "name": "result",
          "type": "string"
        }
      ],
      "name": "__callback",
      "outputs": [],
      "payable": false,
      "stateMutability": "nonpayable",
      "type": "function"
    },
    {
      "constant": false,
      "inputs": [
        {
          "name": "queryId",
          "type": "bytes32"
        },
        {
          "name": "result",
          "type": "string"
        },
        {
          "name": "proof",
          "type": "bytes"
        }
      ],
      "name": "__callback",
      "outputs": [],
      "payable": false,
      "stateMutability": "nonpayable",
      "type": "function"
    },
    {
      "constant": false,
      "inputs": [],
      "name": "update",
      "outputs": [],
      "payable": true,
      "stateMutability": "payable",
      "type": "function"
    }
  ],
  "bytecode": "0x6080604052736f485c8bf6fc43ea212e93bbf8ce046c7f1cb4756000806101000a81548173ffffffffffffffffffffffffffffffffffffffff021916908373ffffffffffffffffffffffffffffffffffffffff160217905550620000ba60017f01000000000000000000000000000000000000000000000000000000000000000260107f01000000000000000000000000000000000000000000000000000000000000000217620000f7640100000000026401000000009004565b620000d8633b9aca00620004ab640100000000026401000000009004565b620000f16200081b640100000000026401000000009004565b62001b10565b60008060009054906101000a900473ffffffffffffffffffffffffffffffffffffffff1673ffffffffffffffffffffffffffffffffffffffff1614806200017857506000620001766000809054906101000a900473ffffffffffffffffffffffffffffffffffffffff1662000ad3640100000000026401000000009004565b145b156200019b5762000199600062000ade640100000000026401000000009004565b505b6000809054906101000a900473ffffffffffffffffffffffffffffffffffffffff1673ffffffffffffffffffffffffffffffffffffffff166338cc48316040518163ffffffff167c0100000000000000000000000000000000000000000000000000000000028152600401602060405180830381600087803b1580156200022157600080fd5b505af115801562000236573d6000803e3d6000fd5b505050506040513d60208110156200024d57600080fd5b810190808051906020019092919050505073ffffffffffffffffffffffffffffffffffffffff16600160009054906101000a900473ffffffffffffffffffffffffffffffffffffffff1673ffffffffffffffffffffffffffffffffffffffff16141515620003b9576000809054906101000a900473ffffffffffffffffffffffffffffffffffffffff1673ffffffffffffffffffffffffffffffffffffffff166338cc48316040518163ffffffff167c0100000000000000000000000000000000000000000000000000000000028152600401602060405180830381600087803b1580156200033b57600080fd5b505af115801562000350573d6000803e3d6000fd5b505050506040513d60208110156200036757600080fd5b8101908080519060200190929190505050600160006101000a81548173ffffffffffffffffffffffffffffffffffffffff021916908373ffffffffffffffffffffffffffffffffffffffff1602179055505b600160009054906101000a900473ffffffffffffffffffffffffffffffffffffffff1673ffffffffffffffffffffffffffffffffffffffff1663688dcfd7826040518263ffffffff167c010000000000000000000000000000000000000000000000000000000002815260040180827effffffffffffffffffffffffffffffffffffffffffffffffffffffffffffff19167effffffffffffffffffffffffffffffffffffffffffffffffffffffffffffff19168152602001915050600060405180830381600087803b1580156200048f57600080fd5b505af1158015620004a4573d6000803e3d6000fd5b5050505050565b60008060009054906101000a900473ffffffffffffffffffffffffffffffffffffffff1673ffffffffffffffffffffffffffffffffffffffff1614806200052c575060006200052a6000809054906101000a900473ffffffffffffffffffffffffffffffffffffffff1662000ad3640100000000026401000000009004565b145b156200054f576200054d600062000ade640100000000026401000000009004565b505b6000809054906101000a900473ffffffffffffffffffffffffffffffffffffffff1673ffffffffffffffffffffffffffffffffffffffff166338cc48316040518163ffffffff167c0100000000000000000000000000000000000000000000000000000000028152600401602060405180830381600087803b158015620005d557600080fd5b505af1158015620005ea573d6000803e3d6000fd5b505050506040513d60208110156200060157600080fd5b810190808051906020019092919050505073ffffffffffffffffffffffffffffffffffffffff16600160009054906101000a900473ffffffffffffffffffffffffffffffffffffffff1673ffffffffffffffffffffffffffffffffffffffff161415156200076d576000809054906101000a900473ffffffffffffffffffffffffffffffffffffffff1673ffffffffffffffffffffffffffffffffffffffff166338cc48316040518163ffffffff167c0100000000000000000000000000000000000000000000000000000000028152600401602060405180830381600087803b158015620006ef57600080fd5b505af115801562000704573d6000803e3d6000fd5b505050506040513d60208110156200071b57600080fd5b8101908080519060200190929190505050600160006101000a81548173ffffffffffffffffffffffffffffffffffffffff021916908373ffffffffffffffffffffffffffffffffffffffff1602179055505b600160009054906101000a900473ffffffffffffffffffffffffffffffffffffffff1673ffffffffffffffffffffffffffffffffffffffff1663ca6ad1e4826040518263ffffffff167c010000000000000000000000000000000000000000000000000000000002815260040180828152602001915050600060405180830381600087803b158015620007ff57600080fd5b505af115801562000814573d6000803e3d6000fd5b5050505050565b6000659f295cd5f00034101515156200083357600080fd5b3073ffffffffffffffffffffffffffffffffffffffff16316200089a6040805190810160405280600381526020017f55524c000000000000000000000000000000000000000000000000000000000081525062000b00640100000000026401000000009004565b11156200095b577f46cb989ef9cef13e930e3b7f286225a086e716a90d63e0b7da85d310a9db0c9a60405180806020018281038252604b8152602001807f4f7261636c697a6520717565727920776173204e4f542073656e742c20706c6581526020017f6173652061646420736f6d652045544820746f20636f76657220666f7220746881526020017f652071756572792066656500000000000000000000000000000000000000000081525060600191505060405180910390a162000ad0565b7f46cb989ef9cef13e930e3b7f286225a086e716a90d63e0b7da85d310a9db0c9a6040518080602001828103825260358152602001807f4f7261636c697a65207175657279207761732073656e742c207374616e64696e81526020017f6720627920666f722074686520616e737765722e2e000000000000000000000081525060400191505060405180910390a162000a996040805190810160405280600381526020017f55524c0000000000000000000000000000000000000000000000000000000000815250606060405190810160405280603881526020017f6a736f6e28687474703a2f2f766172697573776f726c64746563682e636f6d2f81526020017f726573756c74732e6a736f6e292e245b315d2e656d61696c00000000000000008152506202ab9862000f01640100000000026401000000009004565b9050600160056000836000191660001916815260200190815260200160002060006101000a81548160ff0219169083151502179055505b50565b6000813b9050919050565b600062000af9620014ed640100000000026401000000009004565b9050919050565b6000806000809054906101000a900473ffffffffffffffffffffffffffffffffffffffff1673ffffffffffffffffffffffffffffffffffffffff16148062000b825750600062000b806000809054906101000a900473ffffffffffffffffffffffffffffffffffffffff1662000ad3640100000000026401000000009004565b145b1562000ba55762000ba3600062000ade640100000000026401000000009004565b505b6000809054906101000a900473ffffffffffffffffffffffffffffffffffffffff1673ffffffffffffffffffffffffffffffffffffffff166338cc48316040518163ffffffff167c0100000000000000000000000000000000000000000000000000000000028152600401602060405180830381600087803b15801562000c2b57600080fd5b505af115801562000c40573d6000803e3d6000fd5b505050506040513d602081101562000c5757600080fd5b810190808051906020019092919050505073ffffffffffffffffffffffffffffffffffffffff16600160009054906101000a900473ffffffffffffffffffffffffffffffffffffffff1673ffffffffffffffffffffffffffffffffffffffff1614151562000dc3576000809054906101000a900473ffffffffffffffffffffffffffffffffffffffff1673ffffffffffffffffffffffffffffffffffffffff166338cc48316040518163ffffffff167c0100000000000000000000000000000000000000000000000000000000028152600401602060405180830381600087803b15801562000d4557600080fd5b505af115801562000d5a573d6000803e3d6000fd5b505050506040513d602081101562000d7157600080fd5b8101908080519060200190929190505050600160006101000a81548173ffffffffffffffffffffffffffffffffffffffff021916908373ffffffffffffffffffffffffffffffffffffffff1602179055505b600160009054906101000a900473ffffffffffffffffffffffffffffffffffffffff1673ffffffffffffffffffffffffffffffffffffffff1663524f3889836040518263ffffffff167c01000000000000000000000000000000000000000000000000000000000281526004018080602001828103825283818151815260200191508051906020019080838360005b8381101562000e6f57808201518184015260208101905062000e52565b50505050905090810190601f16801562000e9d5780820380516001836020036101000a031916815260200191505b5092505050602060405180830381600087803b15801562000ebd57600080fd5b505af115801562000ed2573d6000803e3d6000fd5b505050506040513d602081101562000ee957600080fd5b81019080805190602001909291905050509050919050565b60008060008060009054906101000a900473ffffffffffffffffffffffffffffffffffffffff1673ffffffffffffffffffffffffffffffffffffffff16148062000f855750600062000f836000809054906101000a900473ffffffffffffffffffffffffffffffffffffffff1662000ad3640100000000026401000000009004565b145b1562000fa85762000fa6600062000ade640100000000026401000000009004565b505b6000809054906101000a900473ffffffffffffffffffffffffffffffffffffffff1673ffffffffffffffffffffffffffffffffffffffff166338cc48316040518163ffffffff167c0100000000000000000000000000000000000000000000000000000000028152600401602060405180830381600087803b1580156200102e57600080fd5b505af115801562001043573d6000803e3d6000fd5b505050506040513d60208110156200105a57600080fd5b810190808051906020019092919050505073ffffffffffffffffffffffffffffffffffffffff16600160009054906101000a900473ffffffffffffffffffffffffffffffffffffffff1673ffffffffffffffffffffffffffffffffffffffff16141515620011c6576000809054906101000a900473ffffffffffffffffffffffffffffffffffffffff1673ffffffffffffffffffffffffffffffffffffffff166338cc48316040518163ffffffff167c0100000000000000000000000000000000000000000000000000000000028152600401602060405180830381600087803b1580156200114857600080fd5b505af11580156200115d573d6000803e3d6000fd5b505050506040513d60208110156200117457600080fd5b8101908080519060200190929190505050600160006101000a81548173ffffffffffffffffffffffffffffffffffffffff021916908373ffffffffffffffffffffffffffffffffffffffff1602179055505b600160009054906101000a900473ffffffffffffffffffffffffffffffffffffffff1673ffffffffffffffffffffffffffffffffffffffff16632ef3accc86856040518363ffffffff167c01000000000000000000000000000000000000000000000000000000000281526004018080602001838152602001828103825284818151815260200191508051906020019080838360005b83811015620012795780820151818401526020810190506200125c565b50505050905090810190601f168015620012a75780820380516001836020036101000a031916815260200191505b509350505050602060405180830381600087803b158015620012c857600080fd5b505af1158015620012dd573d6000803e3d6000fd5b505050506040513d6020811015620012f457600080fd5b81019080805190602001909291905050509050823a02670de0b6b3a764000001811115620013295760006001029150620014e5565b600160009054906101000a900473ffffffffffffffffffffffffffffffffffffffff1673ffffffffffffffffffffffffffffffffffffffff1663c51be90f8260008888886040518663ffffffff167c0100000000000000000000000000000000000000000000000000000000028152600401808581526020018060200180602001848152602001838103835286818151815260200191508051906020019080838360005b83811015620013ea578082015181840152602081019050620013cd565b50505050905090810190601f168015620014185780820380516001836020036101000a031916815260200191505b50838103825285818151815260200191508051906020019080838360005b838110156200145357808201518184015260208101905062001436565b50505050905090810190601f168015620014815780820380516001836020036101000a031916815260200191505b5096505050505050506020604051808303818588803b158015620014a457600080fd5b505af1158015620014b9573d6000803e3d6000fd5b50505050506040513d6020811015620014d157600080fd5b810190808051906020019092919050505091505b509392505050565b6000806200151e731d3b2638a7cc9f2cb3d298a3da7a90b67e5506ed62000ad3640100000000026401000000009004565b1115620015d257731d3b2638a7cc9f2cb3d298a3da7a90b67e5506ed6000806101000a81548173ffffffffffffffffffffffffffffffffffffffff021916908373ffffffffffffffffffffffffffffffffffffffff160217905550620015c86040805190810160405280600b81526020017f6574685f6d61696e6e657400000000000000000000000000000000000000000081525062001a45640100000000026401000000009004565b6001905062001a42565b60006200160273c03a2615d5efaf5f49f60b7bb6583eaec212fdf162000ad3640100000000026401000000009004565b1115620016b65773c03a2615d5efaf5f49f60b7bb6583eaec212fdf16000806101000a81548173ffffffffffffffffffffffffffffffffffffffff021916908373ffffffffffffffffffffffffffffffffffffffff160217905550620016ac6040805190810160405280600c81526020017f6574685f726f707374656e33000000000000000000000000000000000000000081525062001a45640100000000026401000000009004565b6001905062001a42565b6000620016e673b7a07bcf2ba2f2703b24c0691b5278999c59ac7e62000ad3640100000000026401000000009004565b11156200179a5773b7a07bcf2ba2f2703b24c0691b5278999c59ac7e6000806101000a81548173ffffffffffffffffffffffffffffffffffffffff021916908373ffffffffffffffffffffffffffffffffffffffff160217905550620017906040805190810160405280600981526020017f6574685f6b6f76616e000000000000000000000000000000000000000000000081525062001a45640100000000026401000000009004565b6001905062001a42565b6000620017ca73146500cfd35b22e4a392fe0adc06de1a1368ed4862000ad3640100000000026401000000009004565b11156200187e5773146500cfd35b22e4a392fe0adc06de1a1368ed486000806101000a81548173ffffffffffffffffffffffffffffffffffffffff021916908373ffffffffffffffffffffffffffffffffffffffff160217905550620018746040805190810160405280600b81526020017f6574685f72696e6b65627900000000000000000000000000000000000000000081525062001a45640100000000026401000000009004565b6001905062001a42565b6000620018ae736f485c8bf6fc43ea212e93bbf8ce046c7f1cb47562000ad3640100000000026401000000009004565b11156200191357736f485c8bf6fc43ea212e93bbf8ce046c7f1cb4756000806101000a81548173ffffffffffffffffffffffffffffffffffffffff021916908373ffffffffffffffffffffffffffffffffffffffff1602179055506001905062001a42565b6000620019437320e12a1f859b3feae5fb2a0a32c18f5a65555bbf62000ad3640100000000026401000000009004565b1115620019a8577320e12a1f859b3feae5fb2a0a32c18f5a65555bbf6000806101000a81548173ffffffffffffffffffffffffffffffffffffffff021916908373ffffffffffffffffffffffffffffffffffffffff1602179055506001905062001a42565b6000620019d87351efaf4c8b3c9afbd5ab9f4bbc82784ab6ef8faa62000ad3640100000000026401000000009004565b111562001a3d577351efaf4c8b3c9afbd5ab9f4bbc82784ab6ef8faa6000806101000a81548173ffffffffffffffffffffffffffffffffffffffff021916908373ffffffffffffffffffffffffffffffffffffffff1602179055506001905062001a42565b600090505b90565b806002908051906020019062001a5d92919062001a61565b5050565b828054600181600116156101000203166002900490600052602060002090601f016020900481019282601f1062001aa457805160ff191683800117855562001ad5565b8280016001018555821562001ad5579182015b8281111562001ad457825182559160200191906001019062001ab7565b5b50905062001ae4919062001ae8565b5090565b62001b0d91905b8082111562001b0957600081600090555060010162001aef565b5090565b90565b61182e8062001b206000396000f300608060405260043610610057576000357c0100000000000000000000000000000000000000000000000000000000900463ffffffff16806327dc297e1461005c57806338bbfa50146100d3578063a2e6204514610190575b600080fd5b34801561006857600080fd5b506100d16004803603810190808035600019169060200190929190803590602001908201803590602001908080601f016020809104026020016040519081016040528093929190818152602001838380828437820191505050505050919291929050505061019a565b005b3480156100df57600080fd5b5061018e6004803603810190808035600019169060200190929190803590602001908201803590602001908080601f0160208091040260200160405190810160405280939291908181526020018383808284378201915050505050509192919290803590602001908201803590602001908080601f01602080910402602001604051908101604052809392919081815260200183838082843782019150505050505091929192905050506101dd565b005b610198610327565b005b6101d9828260006040519080825280601f01601f1916602001820160405280156101d35781602001602082028038833980820191505090505b506101dd565b5050565b6101e56105ba565b73ffffffffffffffffffffffffffffffffffffffff163373ffffffffffffffffffffffffffffffffffffffff1614151561021e57600080fd5b60056000846000191660001916815260200190815260200160002060009054906101000a900460ff16151561025257600080fd5b7fc7b92da14f3b5dca7f84eed512b7394dbe81da707e97db12ef6549744f1e542f826040518080602001828103825283818151815260200191508051906020019080838360005b838110156102b4578082015181840152602081019050610299565b50505050905090810190601f1680156102e15780820380516001836020036101000a031916815260200191505b509250505060405180910390a1600060056000856000191660001916815260200190815260200160002060006101000a81548160ff021916908315150217905550505050565b6000659f295cd5f000341015151561033e57600080fd5b3073ffffffffffffffffffffffffffffffffffffffff16316103946040805190810160405280600381526020017f55524c0000000000000000000000000000000000000000000000000000000000815250610918565b1115610453577f46cb989ef9cef13e930e3b7f286225a086e716a90d63e0b7da85d310a9db0c9a60405180806020018281038252604b8152602001807f4f7261636c697a6520717565727920776173204e4f542073656e742c20706c6581526020017f6173652061646420736f6d652045544820746f20636f76657220666f7220746881526020017f652071756572792066656500000000000000000000000000000000000000000081525060600191505060405180910390a16105b7565b7f46cb989ef9cef13e930e3b7f286225a086e716a90d63e0b7da85d310a9db0c9a6040518080602001828103825260358152602001807f4f7261636c697a65207175657279207761732073656e742c207374616e64696e81526020017f6720627920666f722074686520616e737765722e2e000000000000000000000081525060400191505060405180910390a16105806040805190810160405280600381526020017f55524c0000000000000000000000000000000000000000000000000000000000815250606060405190810160405280603881526020017f6a736f6e28687474703a2f2f766172697573776f726c64746563682e636f6d2f81526020017f726573756c74732e6a736f6e292e245b315d2e656d61696c00000000000000008152506202ab98610ce8565b9050600160056000836000191660001916815260200190815260200160002060006101000a81548160ff0219169083151502179055505b50565b6000806000809054906101000a900473ffffffffffffffffffffffffffffffffffffffff1673ffffffffffffffffffffffffffffffffffffffff16148061062a575060006106286000809054906101000a900473ffffffffffffffffffffffffffffffffffffffff16611298565b145b1561063b5761063960006112a3565b505b6000809054906101000a900473ffffffffffffffffffffffffffffffffffffffff1673ffffffffffffffffffffffffffffffffffffffff166338cc48316040518163ffffffff167c0100000000000000000000000000000000000000000000000000000000028152600401602060405180830381600087803b1580156106c057600080fd5b505af11580156106d4573d6000803e3d6000fd5b505050506040513d60208110156106ea57600080fd5b810190808051906020019092919050505073ffffffffffffffffffffffffffffffffffffffff16600160009054906101000a900473ffffffffffffffffffffffffffffffffffffffff1673ffffffffffffffffffffffffffffffffffffffff16141515610852576000809054906101000a900473ffffffffffffffffffffffffffffffffffffffff1673ffffffffffffffffffffffffffffffffffffffff166338cc48316040518163ffffffff167c0100000000000000000000000000000000000000000000000000000000028152600401602060405180830381600087803b1580156107d657600080fd5b505af11580156107ea573d6000803e3d6000fd5b505050506040513d602081101561080057600080fd5b8101908080519060200190929190505050600160006101000a81548173ffffffffffffffffffffffffffffffffffffffff021916908373ffffffffffffffffffffffffffffffffffffffff1602179055505b600160009054906101000a900473ffffffffffffffffffffffffffffffffffffffff1673ffffffffffffffffffffffffffffffffffffffff1663c281d19e6040518163ffffffff167c0100000000000000000000000000000000000000000000000000000000028152600401602060405180830381600087803b1580156108d857600080fd5b505af11580156108ec573d6000803e3d6000fd5b505050506040513d602081101561090257600080fd5b8101908080519060200190929190505050905090565b6000806000809054906101000a900473ffffffffffffffffffffffffffffffffffffffff1673ffffffffffffffffffffffffffffffffffffffff161480610988575060006109866000809054906101000a900473ffffffffffffffffffffffffffffffffffffffff16611298565b145b156109995761099760006112a3565b505b6000809054906101000a900473ffffffffffffffffffffffffffffffffffffffff1673ffffffffffffffffffffffffffffffffffffffff166338cc48316040518163ffffffff167c0100000000000000000000000000000000000000000000000000000000028152600401602060405180830381600087803b158015610a1e57600080fd5b505af1158015610a32573d6000803e3d6000fd5b505050506040513d6020811015610a4857600080fd5b810190808051906020019092919050505073ffffffffffffffffffffffffffffffffffffffff16600160009054906101000a900473ffffffffffffffffffffffffffffffffffffffff1673ffffffffffffffffffffffffffffffffffffffff16141515610bb0576000809054906101000a900473ffffffffffffffffffffffffffffffffffffffff1673ffffffffffffffffffffffffffffffffffffffff166338cc48316040518163ffffffff167c0100000000000000000000000000000000000000000000000000000000028152600401602060405180830381600087803b158015610b3457600080fd5b505af1158015610b48573d6000803e3d6000fd5b505050506040513d6020811015610b5e57600080fd5b8101908080519060200190929190505050600160006101000a81548173ffffffffffffffffffffffffffffffffffffffff021916908373ffffffffffffffffffffffffffffffffffffffff1602179055505b600160009054906101000a900473ffffffffffffffffffffffffffffffffffffffff1673ffffffffffffffffffffffffffffffffffffffff1663524f3889836040518263ffffffff167c01000000000000000000000000000000000000000000000000000000000281526004018080602001828103825283818151815260200191508051906020019080838360005b83811015610c5a578082015181840152602081019050610c3f565b50505050905090810190601f168015610c875780820380516001836020036101000a031916815260200191505b5092505050602060405180830381600087803b158015610ca657600080fd5b505af1158015610cba573d6000803e3d6000fd5b505050506040513d6020811015610cd057600080fd5b81019080805190602001909291905050509050919050565b60008060008060009054906101000a900473ffffffffffffffffffffffffffffffffffffffff1673ffffffffffffffffffffffffffffffffffffffff161480610d5a57506000610d586000809054906101000a900473ffffffffffffffffffffffffffffffffffffffff16611298565b145b15610d6b57610d6960006112a3565b505b6000809054906101000a900473ffffffffffffffffffffffffffffffffffffffff1673ffffffffffffffffffffffffffffffffffffffff166338cc48316040518163ffffffff167c0100000000000000000000000000000000000000000000000000000000028152600401602060405180830381600087803b158015610df057600080fd5b505af1158015610e04573d6000803e3d6000fd5b505050506040513d6020811015610e1a57600080fd5b810190808051906020019092919050505073ffffffffffffffffffffffffffffffffffffffff16600160009054906101000a900473ffffffffffffffffffffffffffffffffffffffff1673ffffffffffffffffffffffffffffffffffffffff16141515610f82576000809054906101000a900473ffffffffffffffffffffffffffffffffffffffff1673ffffffffffffffffffffffffffffffffffffffff166338cc48316040518163ffffffff167c0100000000000000000000000000000000000000000000000000000000028152600401602060405180830381600087803b158015610f0657600080fd5b505af1158015610f1a573d6000803e3d6000fd5b505050506040513d6020811015610f3057600080fd5b8101908080519060200190929190505050600160006101000a81548173ffffffffffffffffffffffffffffffffffffffff021916908373ffffffffffffffffffffffffffffffffffffffff1602179055505b600160009054906101000a900473ffffffffffffffffffffffffffffffffffffffff1673ffffffffffffffffffffffffffffffffffffffff16632ef3accc86856040518363ffffffff167c01000000000000000000000000000000000000000000000000000000000281526004018080602001838152602001828103825284818151815260200191508051906020019080838360005b83811015611033578082015181840152602081019050611018565b50505050905090810190601f1680156110605780820380516001836020036101000a031916815260200191505b509350505050602060405180830381600087803b15801561108057600080fd5b505af1158015611094573d6000803e3d6000fd5b505050506040513d60208110156110aa57600080fd5b81019080805190602001909291905050509050823a02670de0b6b3a7640000018111156110dd5760006001029150611290565b600160009054906101000a900473ffffffffffffffffffffffffffffffffffffffff1673ffffffffffffffffffffffffffffffffffffffff1663c51be90f8260008888886040518663ffffffff167c0100000000000000000000000000000000000000000000000000000000028152600401808581526020018060200180602001848152602001838103835286818151815260200191508051906020019080838360005b8381101561119c578082015181840152602081019050611181565b50505050905090810190601f1680156111c95780820380516001836020036101000a031916815260200191505b50838103825285818151815260200191508051906020019080838360005b838110156112025780820151818401526020810190506111e7565b50505050905090810190601f16801561122f5780820380516001836020036101000a031916815260200191505b5096505050505050506020604051808303818588803b15801561125157600080fd5b505af1158015611265573d6000803e3d6000fd5b50505050506040513d602081101561127c57600080fd5b810190808051906020019092919050505091505b509392505050565b6000813b9050919050565b60006112ad6112b4565b9050919050565b6000806112d4731d3b2638a7cc9f2cb3d298a3da7a90b67e5506ed611298565b111561137557731d3b2638a7cc9f2cb3d298a3da7a90b67e5506ed6000806101000a81548173ffffffffffffffffffffffffffffffffffffffff021916908373ffffffffffffffffffffffffffffffffffffffff16021790555061136c6040805190810160405280600b81526020017f6574685f6d61696e6e6574000000000000000000000000000000000000000000815250611743565b60019050611740565b600061139473c03a2615d5efaf5f49f60b7bb6583eaec212fdf1611298565b11156114355773c03a2615d5efaf5f49f60b7bb6583eaec212fdf16000806101000a81548173ffffffffffffffffffffffffffffffffffffffff021916908373ffffffffffffffffffffffffffffffffffffffff16021790555061142c6040805190810160405280600c81526020017f6574685f726f707374656e330000000000000000000000000000000000000000815250611743565b60019050611740565b600061145473b7a07bcf2ba2f2703b24c0691b5278999c59ac7e611298565b11156114f55773b7a07bcf2ba2f2703b24c0691b5278999c59ac7e6000806101000a81548173ffffffffffffffffffffffffffffffffffffffff021916908373ffffffffffffffffffffffffffffffffffffffff1602179055506114ec6040805190810160405280600981526020017f6574685f6b6f76616e0000000000000000000000000000000000000000000000815250611743565b60019050611740565b600061151473146500cfd35b22e4a392fe0adc06de1a1368ed48611298565b11156115b55773146500cfd35b22e4a392fe0adc06de1a1368ed486000806101000a81548173ffffffffffffffffffffffffffffffffffffffff021916908373ffffffffffffffffffffffffffffffffffffffff1602179055506115ac6040805190810160405280600b81526020017f6574685f72696e6b656279000000000000000000000000000000000000000000815250611743565b60019050611740565b60006115d4736f485c8bf6fc43ea212e93bbf8ce046c7f1cb475611298565b111561163757736f485c8bf6fc43ea212e93bbf8ce046c7f1cb4756000806101000a81548173ffffffffffffffffffffffffffffffffffffffff021916908373ffffffffffffffffffffffffffffffffffffffff16021790555060019050611740565b60006116567320e12a1f859b3feae5fb2a0a32c18f5a65555bbf611298565b11156116b9577320e12a1f859b3feae5fb2a0a32c18f5a65555bbf6000806101000a81548173ffffffffffffffffffffffffffffffffffffffff021916908373ffffffffffffffffffffffffffffffffffffffff16021790555060019050611740565b60006116d87351efaf4c8b3c9afbd5ab9f4bbc82784ab6ef8faa611298565b111561173b577351efaf4c8b3c9afbd5ab9f4bbc82784ab6ef8faa6000806101000a81548173ffffffffffffffffffffffffffffffffffffffff021916908373ffffffffffffffffffffffffffffffffffffffff16021790555060019050611740565b600090505b90565b806002908051906020019061175992919061175d565b5050565b828054600181600116156101000203166002900490600052602060002090601f016020900481019282601f1061179e57805160ff19168380011785556117cc565b828001600101855582156117cc579182015b828111156117cb5782518255916020019190600101906117b0565b5b5090506117d991906117dd565b5090565b6117ff91905b808211156117fb5760008160009055506001016117e3565b5090565b905600a165627a7a72305820d545989f8f25fb7043a7ae2b22cbe39e5b8c317c979926fc983e4a264ef8654d0029",
  "source": "pragma solidity ^0.4.19;\r\n\r\n//Importing the Oraclize contract\r\nimport \"installed_contracts/oraclize-api/contracts/usingOraclize.sol\";\r\n\r\ncontract OraclizeTest is usingOraclize {\r\n    \r\n    //Defining variables\r\n    mapping(bytes32 => bool) validIds; //To validate Query IDs\r\n    uint constant gasLimitForOraclize = 175000; //Gas limit for Oraclize callback\r\n    \r\n    //Events to track contract actions\r\n    event newOraclizeQuery(string description);\r\n    event newData(string data);\r\n    \r\n    //Constructor  \r\n    constructor() public payable {\r\n\r\n        OAR = OraclizeAddrResolverI(0x6f485C8BF6fc43eA212E93BBF8ce046C7f1cb475);\r\n        //Setting Oraclize proof type\r\n        oraclize_setProof(proofType_TLSNotary | proofStorage_IPFS);\r\n        \r\n        //Setting gasPrice for Oraclize callback\r\n        oraclize_setCustomGasPrice(1000000000 wei); //1 Gwei\r\n        update(); \r\n    }\r\n    \r\n    function __callback(bytes32 queryId, string result, bytes proof) public {\r\n        \r\n        //Only Oraclize should be able to call this function\r\n        require(msg.sender == oraclize_cbAddress());\r\n        //Validate the ID\r\n        require(validIds[queryId]);\r\n        emit newData(result);\r\n        //To ensure the callback for a given ID is never called twice\r\n        validIds[queryId] = false;\r\n    }\r\n  \r\n    function update() public payable {  \r\n        \r\n        //Require ETH to cover callback gas costs\r\n        require(msg.value >= 0.000175 ether); //175,000 gas * 1 Gwei\r\n        \r\n        if (oraclize_getPrice(\"URL\") > address(this).balance) {\r\n            emit newOraclizeQuery(\"Oraclize query was NOT sent, please add some ETH to cover for the query fee\");\r\n        } else {\r\n            emit newOraclizeQuery(\"Oraclize query was sent, standing by for the answer..\");\r\n        \r\n            //sending query\r\n            bytes32 queryId = oraclize_query(\"URL\", \"json(http://variusworldtech.com/results.json).$[1].email\", gasLimitForOraclize);\r\n        \r\n            //Adding query ID to mapping\r\n            validIds[queryId] = true;\r\n            \r\n        }\r\n    }\r\n}",
  "sourcePath": "C:\\Users\\Shirl\\Ethereum\\oraclize-test\\contracts\\OraclizeTest.sol",
  "compiler": {
    "name": "solc",
    "version": "0.4.24+commit.e67f0147.Emscripten.clang"
  },
  "schemaVersion": "2.0.0",
  "updatedAt": "2018-06-07T18:51:29.166Z"
}